{
  "contractName": "escrow",
  "abi": [
    {
      "inputs": [
        {
          "internalType": "address payable",
          "name": "_seller",
          "type": "address"
        }
      ],
      "stateMutability": "nonpayable",
      "type": "constructor"
    },
    {
      "anonymous": false,
      "inputs": [
        {
          "indexed": false,
          "internalType": "address",
          "name": "user",
          "type": "address"
        },
        {
          "indexed": false,
          "internalType": "uint256",
          "name": "amount",
          "type": "uint256"
        }
      ],
      "name": "AmoutRecieved",
      "type": "event"
    },
    {
      "anonymous": false,
      "inputs": [
        {
          "indexed": false,
          "internalType": "string",
          "name": "notification",
          "type": "string"
        }
      ],
      "name": "nofify",
      "type": "event"
    },
    {
      "stateMutability": "payable",
      "type": "fallback"
    },
    {
      "inputs": [],
      "name": "deals",
      "outputs": [
        {
          "internalType": "string",
          "name": "buyer_name",
          "type": "string"
        },
        {
          "internalType": "uint256",
          "name": "items",
          "type": "uint256"
        },
        {
          "internalType": "uint256",
          "name": "total",
          "type": "uint256"
        },
        {
          "internalType": "uint256",
          "name": "price_per_item",
          "type": "uint256"
        },
        {
          "internalType": "string",
          "name": "date",
          "type": "string"
        }
      ],
      "stateMutability": "view",
      "type": "function"
    },
    {
      "inputs": [],
      "name": "isBuyer",
      "outputs": [
        {
          "internalType": "bool",
          "name": "",
          "type": "bool"
        }
      ],
      "stateMutability": "view",
      "type": "function"
    },
    {
      "inputs": [],
      "name": "isSeller",
      "outputs": [
        {
          "internalType": "bool",
          "name": "",
          "type": "bool"
        }
      ],
      "stateMutability": "view",
      "type": "function"
    },
    {
      "inputs": [],
      "name": "status",
      "outputs": [
        {
          "internalType": "enum escrow.state",
          "name": "",
          "type": "uint8"
        }
      ],
      "stateMutability": "view",
      "type": "function"
    },
    {
      "stateMutability": "payable",
      "type": "receive"
    },
    {
      "inputs": [
        {
          "internalType": "string",
          "name": "buyer_name",
          "type": "string"
        },
        {
          "internalType": "uint256",
          "name": "items_amount",
          "type": "uint256"
        },
        {
          "internalType": "string",
          "name": "_date",
          "type": "string"
        },
        {
          "internalType": "uint256",
          "name": "price_per_product",
          "type": "uint256"
        }
      ],
      "name": "Product_details",
      "outputs": [],
      "stateMutability": "nonpayable",
      "type": "function"
    },
    {
      "inputs": [],
      "name": "escrow_balance",
      "outputs": [
        {
          "internalType": "uint256",
          "name": "",
          "type": "uint256"
        }
      ],
      "stateMutability": "view",
      "type": "function"
    },
    {
      "inputs": [],
      "name": "seller_deny_service",
      "outputs": [],
      "stateMutability": "nonpayable",
      "type": "function"
    },
    {
      "inputs": [],
      "name": "seller_send_product",
      "outputs": [],
      "stateMutability": "payable",
      "type": "function"
    },
    {
      "inputs": [],
      "name": "delivery_recieved",
      "outputs": [],
      "stateMutability": "payable",
      "type": "function"
    },
    {
      "inputs": [],
      "name": "withdraw_fund",
      "outputs": [],
      "stateMutability": "nonpayable",
      "type": "function"
    }
  ],
  "bytecode": "0x60806040523480156200001157600080fd5b5060405162001a9e38038062001a9e833981810160405281019062000037919062000157565b336000806101000a81548173ffffffffffffffffffffffffffffffffffffffff021916908373ffffffffffffffffffffffffffffffffffffffff16021790555080600160006101000a81548173ffffffffffffffffffffffffffffffffffffffff021916908373ffffffffffffffffffffffffffffffffffffffff1602179055506000600a60006101000a81548160ff02191690836003811115620000e157620000e062000189565b5b021790555050620001b8565b600080fd5b600073ffffffffffffffffffffffffffffffffffffffff82169050919050565b60006200011f82620000f2565b9050919050565b620001318162000112565b81146200013d57600080fd5b50565b600081519050620001518162000126565b92915050565b60006020828403121562000170576200016f620000ed565b5b6000620001808482850162000140565b91505092915050565b7f4e487b7100000000000000000000000000000000000000000000000000000000600052602160045260246000fd5b6118d680620001c86000396000f3fe6080604052600436106100945760003560e01c80635cd30cbf116100595780635cd30cbf146104eb578063694b850b14610502578063a7541e9f1461052b578063e825f07614610556578063ee4a048e146105815761028a565b80626a01ac146104455780630f752fe81461045c5780631d762b241461048b578063200d2ed2146104955780632f141da7146104c05761028a565b3661028a57600160009054906101000a900473ffffffffffffffffffffffffffffffffffffffff1673ffffffffffffffffffffffffffffffffffffffff163373ffffffffffffffffffffffffffffffffffffffff1614610129576040517f08c379a000000000000000000000000000000000000000000000000000000000815260040161012090610ef3565b60405180910390fd5b6001600381111561013d5761013c610f13565b5b600a60009054906101000a900460ff16600381111561015f5761015e610f13565b5b1461019f576040517f08c379a000000000000000000000000000000000000000000000000000000000815260040161019690610f8e565b60405180910390fd5b60028001543410156101b057600080fd5b34600160009054906101000a900473ffffffffffffffffffffffffffffffffffffffff1673ffffffffffffffffffffffffffffffffffffffff16316101f59190610fe7565b600781905550426009819055506003600a60006101000a81548160ff0219169083600381111561022857610227610f13565b5b02179055507f8ae7a08bf5f9f7a24e656f44192fdf56e084ec875de84d15794e7112b58ebeae600160009054906101000a900473ffffffffffffffffffffffffffffffffffffffff16346040516102809291906110cb565b60405180910390a1005b60008054906101000a900473ffffffffffffffffffffffffffffffffffffffff1673ffffffffffffffffffffffffffffffffffffffff163373ffffffffffffffffffffffffffffffffffffffff1614610318576040517f08c379a000000000000000000000000000000000000000000000000000000000815260040161030f90611140565b60405180910390fd5b6000600381111561032c5761032b610f13565b5b600a60009054906101000a900460ff16600381111561034e5761034d610f13565b5b1461038e576040517f08c379a0000000000000000000000000000000000000000000000000000000008152600401610385906111ac565b60405180910390fd5b60028001543410156103d5576040517f08c379a00000000000000000000000000000000000000000000000000000000081526004016103cc9061123e565b60405180910390fd5b34600781905550426008819055506001600a60006101000a81548160ff0219169083600381111561040957610408610f13565b5b02179055507f4ce51bf756d07091d820c116083b62d25ad1eb20e1499c480083b9ded44d33e860405161043b906112d0565b60405180910390a1005b34801561045157600080fd5b5061045a61058b565b005b34801561046857600080fd5b506104716106ef565b604051610482959493929190611378565b60405180910390f35b610493610823565b005b3480156104a157600080fd5b506104aa610910565b6040516104b79190611421565b60405180910390f35b3480156104cc57600080fd5b506104d5610923565b6040516104e2919061143c565b60405180910390f35b3480156104f757600080fd5b5061050061092b565b005b34801561050e57600080fd5b50610529600480360381019061052491906115cc565b610b98565b005b34801561053757600080fd5b50610540610c04565b60405161054d9190611686565b60405180910390f35b34801561056257600080fd5b5061056b610c17565b6040516105789190611686565b60405180910390f35b610589610c2a565b005b600160009054906101000a900473ffffffffffffffffffffffffffffffffffffffff1673ffffffffffffffffffffffffffffffffffffffff163373ffffffffffffffffffffffffffffffffffffffff161461061b576040517f08c379a0000000000000000000000000000000000000000000000000000000008152600401610612906116ed565b60405180910390fd5b6001600381111561062f5761062e610f13565b5b600a60009054906101000a900460ff16600381111561065157610650610f13565b5b1461065b57600080fd5b60008054906101000a900473ffffffffffffffffffffffffffffffffffffffff1673ffffffffffffffffffffffffffffffffffffffff166108fc479081150290604051600060405180830381858888f193505050501580156106c1573d6000803e3d6000fd5b506003600a60006101000a81548160ff021916908360038111156106e8576106e7610f13565b5b0217905550565b60028060000180546107009061173c565b80601f016020809104026020016040519081016040528092919081815260200182805461072c9061173c565b80156107795780601f1061074e57610100808354040283529160200191610779565b820191906000526020600020905b81548152906001019060200180831161075c57829003601f168201915b5050505050908060010154908060020154908060030154908060040180546107a09061173c565b80601f01602080910402602001604051908101604052809291908181526020018280546107cc9061173c565b80156108195780601f106107ee57610100808354040283529160200191610819565b820191906000526020600020905b8154815290600101906020018083116107fc57829003601f168201915b5050505050905085565b600160009054906101000a900473ffffffffffffffffffffffffffffffffffffffff1673ffffffffffffffffffffffffffffffffffffffff163373ffffffffffffffffffffffffffffffffffffffff16146108b3576040517f08c379a00000000000000000000000000000000000000000000000000000000081526004016108aa906117ba565b60405180910390fd5b600160038111156108c7576108c6610f13565b5b600a60009054906101000a900460ff1660038111156108e9576108e8610f13565b5b146108f357600080fd5b6001600a60026101000a81548160ff021916908315150217905550565b600a60009054906101000a900460ff1681565b600047905090565b426009819055506001600381111561094657610945610f13565b5b600a60009054906101000a900460ff16600381111561096857610967610f13565b5b1461097257600080fd5b60008054906101000a900473ffffffffffffffffffffffffffffffffffffffff1673ffffffffffffffffffffffffffffffffffffffff163373ffffffffffffffffffffffffffffffffffffffff16146109ca57600080fd5b60001515600a60019054906101000a900460ff161515148015610a00575060011515600a60029054906101000a900460ff161515145b15610a7357600160009054906101000a900473ffffffffffffffffffffffffffffffffffffffff1673ffffffffffffffffffffffffffffffffffffffff166108fc479081150290604051600060405180830381858888f19350505050158015610a6d573d6000803e3d6000fd5b50610b6b565b600a60019054906101000a900460ff168015610a9c5750600a60029054906101000a900460ff16155b8015610ab957506202a300600854610ab49190610fe7565b600954115b15610b6a576000471415610b02576040517f08c379a0000000000000000000000000000000000000000000000000000000008152600401610af990611826565b60405180910390fd5b60008054906101000a900473ffffffffffffffffffffffffffffffffffffffff1673ffffffffffffffffffffffffffffffffffffffff166108fc479081150290604051600060405180830381858888f19350505050158015610b68573d6000803e3d6000fd5b505b5b6003600a60006101000a81548160ff02191690836003811115610b9157610b90610f13565b5b0217905550565b8360026000019080519060200190610bb1929190610df3565b50826002600101819055508160026004019080519060200190610bd5929190610df3565b5080600260030181905550600260010154600260030154610bf69190611846565b600280018190555050505050565b600a60029054906101000a900460ff1681565b600a60019054906101000a900460ff1681565b60008054906101000a900473ffffffffffffffffffffffffffffffffffffffff1673ffffffffffffffffffffffffffffffffffffffff163373ffffffffffffffffffffffffffffffffffffffff1614610c8257600080fd5b60016003811115610c9657610c95610f13565b5b600a60009054906101000a900460ff166003811115610cb857610cb7610f13565b5b14610cc257600080fd5b6001600a60016101000a81548160ff0219169083151502179055506002600a60006101000a81548160ff02191690836003811115610d0357610d02610f13565b5b021790555060011515600a60029054906101000a900460ff1615151415610d2d57610d2c610d2f565b5b565b600a60019054906101000a900460ff168015610d575750600a60029054906101000a900460ff165b15610dc657600160009054906101000a900473ffffffffffffffffffffffffffffffffffffffff1673ffffffffffffffffffffffffffffffffffffffff166108fc479081150290604051600060405180830381858888f19350505050158015610dc4573d6000803e3d6000fd5b505b6003600a60006101000a81548160ff02191690836003811115610dec57610deb610f13565b5b0217905550565b828054610dff9061173c565b90600052602060002090601f016020900481019282610e215760008555610e68565b82601f10610e3a57805160ff1916838001178555610e68565b82800160010185558215610e68579182015b82811115610e67578251825591602001919060010190610e4c565b5b509050610e759190610e79565b5090565b5b80821115610e92576000816000905550600101610e7a565b5090565b600082825260208201905092915050565b7f77616974206c6574206d6520696e666f726d2073656c6c65722042686f690000600082015250565b6000610edd601e83610e96565b9150610ee882610ea7565b602082019050919050565b60006020820190508181036000830152610f0c81610ed0565b9050919050565b7f4e487b7100000000000000000000000000000000000000000000000000000000600052602160045260246000fd5b7f70726f64756374206973206e6f742064656c6976657265642079657400000000600082015250565b6000610f78601c83610e96565b9150610f8382610f42565b602082019050919050565b60006020820190508181036000830152610fa781610f6b565b9050919050565b6000819050919050565b7f4e487b7100000000000000000000000000000000000000000000000000000000600052601160045260246000fd5b6000610ff282610fae565b9150610ffd83610fae565b9250827fffffffffffffffffffffffffffffffffffffffffffffffffffffffffffffffff0382111561103257611031610fb8565b5b828201905092915050565b600073ffffffffffffffffffffffffffffffffffffffff82169050919050565b6000819050919050565b600061108261107d6110788461103d565b61105d565b61103d565b9050919050565b600061109482611067565b9050919050565b60006110a682611089565b9050919050565b6110b68161109b565b82525050565b6110c581610fae565b82525050565b60006040820190506110e060008301856110ad565b6110ed60208301846110bc565b9392505050565b7f4f6e6c7920666f72206275796572000000000000000000000000000000000000600082015250565b600061112a600e83610e96565b9150611135826110f4565b602082019050919050565b600060208201905081810360008301526111598161111d565b9050919050565b7f706179656d656e7420697320616c726561647920636f6d706c65746564000000600082015250565b6000611196601d83610e96565b91506111a182611160565b602082019050919050565b600060208201905081810360008301526111c581611189565b9050919050565b7f616d6f756e74206973206c6573732074686520726571756972656420616d6f7560008201527f6e74000000000000000000000000000000000000000000000000000000000000602082015250565b6000611228602283610e96565b9150611233826111cc565b604082019050919050565b600060208201905081810360008301526112578161121b565b9050919050565b7f627579657220686173206465706f7369746564207468652066756e6420696e2060008201527f657363726f770000000000000000000000000000000000000000000000000000602082015250565b60006112ba602683610e96565b91506112c58261125e565b604082019050919050565b600060208201905081810360008301526112e9816112ad565b9050919050565b600081519050919050565b60005b838110156113195780820151818401526020810190506112fe565b83811115611328576000848401525b50505050565b6000601f19601f8301169050919050565b600061134a826112f0565b6113548185610e96565b93506113648185602086016112fb565b61136d8161132e565b840191505092915050565b600060a0820190508181036000830152611392818861133f565b90506113a160208301876110bc565b6113ae60408301866110bc565b6113bb60608301856110bc565b81810360808301526113cd818461133f565b90509695505050505050565b600481106113ea576113e9610f13565b5b50565b60008190506113fb826113d9565b919050565b600061140b826113ed565b9050919050565b61141b81611400565b82525050565b60006020820190506114366000830184611412565b92915050565b600060208201905061145160008301846110bc565b92915050565b6000604051905090565b600080fd5b600080fd5b600080fd5b600080fd5b7f4e487b7100000000000000000000000000000000000000000000000000000000600052604160045260246000fd5b6114ad8261132e565b810181811067ffffffffffffffff821117156114cc576114cb611475565b5b80604052505050565b60006114df611457565b90506114eb82826114a4565b919050565b600067ffffffffffffffff82111561150b5761150a611475565b5b6115148261132e565b9050602081019050919050565b82818337600083830152505050565b600061154361153e846114f0565b6114d5565b90508281526020810184848401111561155f5761155e611470565b5b61156a848285611521565b509392505050565b600082601f8301126115875761158661146b565b5b8135611597848260208601611530565b91505092915050565b6115a981610fae565b81146115b457600080fd5b50565b6000813590506115c6816115a0565b92915050565b600080600080608085870312156115e6576115e5611461565b5b600085013567ffffffffffffffff81111561160457611603611466565b5b61161087828801611572565b9450506020611621878288016115b7565b935050604085013567ffffffffffffffff81111561164257611641611466565b5b61164e87828801611572565b925050606061165f878288016115b7565b91505092959194509250565b60008115159050919050565b6116808161166b565b82525050565b600060208201905061169b6000830184611677565b92915050565b7f796f752063616e6e6f74206861636b206d7920636f6e74726163740000000000600082015250565b60006116d7601b83610e96565b91506116e2826116a1565b602082019050919050565b60006020820190508181036000830152611706816116ca565b9050919050565b7f4e487b7100000000000000000000000000000000000000000000000000000000600052602260045260246000fd5b6000600282049050600182168061175457607f821691505b602082108114156117685761176761170d565b5b50919050565b7f6f6e6c792061636365737365642062792073656c6c6572000000000000000000600082015250565b60006117a4601783610e96565b91506117af8261176e565b602082019050919050565b600060208201905081810360008301526117d381611797565b9050919050565b7f416c7265616479206d6f6e6579207472616e7366657272656400000000000000600082015250565b6000611810601983610e96565b915061181b826117da565b602082019050919050565b6000602082019050818103600083015261183f81611803565b9050919050565b600061185182610fae565b915061185c83610fae565b9250817fffffffffffffffffffffffffffffffffffffffffffffffffffffffffffffffff048311821515161561189557611894610fb8565b5b82820290509291505056fea2646970667358221220170d9a39e174f032f44d20001ee7fccd9bc99e2c91fa0e036297fc8b9c5785af64736f6c634300080b0033",
  "immutableReferences": {},
  "source": "// SPDX-License-Identifier: MIT\npragma solidity >=0.4.22 <0.9.0;\n\ncontract escrow {\n  address payable buyer;\n  address payable seller;\n\n// escrow for bussiness market\n  struct Deal{\n    string buyer_name;\n    uint items;\n    uint total;\n    uint price_per_item;\n    string date;\n  }\n  Deal public deals;\n\n  uint balance; \n  uint start;\n  uint end;\n\n  \n  // event for notification\n  event nofify(string notification);\n  // event for recieve function\n  event AmoutRecieved(address user,uint amount);\n\n  enum state{Payment_pending, Delivery_pending, Pending_fund_release, Complete}\n  state public status;\n\n  bool public isBuyer;\n  bool public isSeller;\n\n\n  constructor(address payable _seller) {\n    buyer = payable(msg.sender); // buyer is deployer\n    seller = _seller;\n    status = state.Payment_pending;\n  }\n\n  function Product_details(string memory buyer_name,uint items_amount,string memory _date,uint price_per_product) \n  public {\n    deals.buyer_name = buyer_name;\n    deals.items = items_amount;\n    deals.date = _date;\n    deals.price_per_item = price_per_product;\n    deals.total = deals.price_per_item * deals.items;\n  }\n\n    fallback()payable external {\n    require(msg.sender == buyer,'Only for buyer');\n    require(status==state.Payment_pending,'payement is already completed');\n    require(msg.value >= deals.total,'amount is less the required amount');\n    balance = msg.value;\n    start = block.timestamp;\n    status = state.Delivery_pending;\n    emit nofify('buyer has deposited the fund in escrow');\n\n  }\n  receive() external payable{\n    require(msg.sender == seller, 'wait let me inform seller Bhoi');\n    require(status==state.Delivery_pending,'product is not delivered yet');\n    require(msg.value >= deals.total);\n    balance = seller.balance + msg.value;\n    end = block.timestamp;\n    status = state.Complete;\n    emit AmoutRecieved(seller, msg.value);\n\n  }\n  function escrow_balance() public view returns (uint)\n  {\n    return address(this).balance;\n  }\n  function seller_deny_service() public\n  {\n    require(msg.sender == seller, 'you cannot hack my contract');\n    require(status == state.Delivery_pending);\n      buyer.transfer(address(this).balance);\n      status = state.Complete;\n  }\n\n  function seller_send_product() public payable\n  {\n    require(msg.sender == seller, 'only accessed by seller');\n      require(status == state.Delivery_pending);\n        isSeller = true; \n  }\n  function delivery_recieved() public payable\n  {\n    require(msg.sender == buyer);\n    require(status == state.Delivery_pending);\n    isBuyer = true;\n    status = state.Pending_fund_release;\n    if(isSeller== true)\n        release_fund();\n  }\n\n  function release_fund() private {\n    if(isBuyer&&isSeller)\n        seller.transfer((address(this).balance));\n        status = state.Complete;\n  }\n\n  function withdraw_fund() public \n  {\n    end = block.timestamp;\n    require(status == state.Delivery_pending);\n    require(msg.sender == buyer);\n    if(isBuyer == false && isSeller == true) \n        seller.transfer(address(this).balance);\n// time exceeds 30 days after the buyer has deposited in the escrow contract        \n    else if(isBuyer &&! isSeller && end > start + 172800)  \n    {\n      require(address(this).balance !=0, 'Already money transferred');\n      buyer.transfer(address(this).balance);\n    }\n    status = state.Complete;\n  }\n}\n",
  "sourcePath": "/Users/vikashpathak/works/SelectedProjects/Escrow/contracts/escrow.sol",
  "compiler": {
    "name": "solc",
    "version": "0.8.11+commit.d7f03943.Emscripten.clang"
  },
  "schemaVersion": "3.4.5",
  "updatedAt": "2022-04-02T21:47:26.306Z",
  "devdoc": {
    "kind": "dev",
    "methods": {},
    "version": 1
  },
  "userdoc": {
    "kind": "user",
    "methods": {},
    "version": 1
  }
}